:020000040000FA
:0400000007EF00F016
:10000800258212ED01F06FEF01F023042410D8A42B
:1000180010EF00F012EF00F052EF00F0C3CF1BF02A
:10002800C4CF1CF01D6A1E6A1BC002F01CC003F07E
:100038001DC004F01EC005F07C0E066E150E076E7E
:10004800000E086E000E096EDDEC00F002C00EF026
:1000580003C00FF004C010F005C011F0FF0E126EBF
:10006800030E136E000E146E000E156E8BEC00F06E
:100078000E5023081F6EFA0E0F54206E000E1054F7
:10008800216E000E1154226E1FC0D6FF20C0D7FF6C
:10009800000E246E000E236E8AEF00F0020E231865
:1000A8002410D8A45AEF00F05CEF00F08AEF00F0BB
:1000B8001BC002F01CC003F01DC004F01EC005F0F8
:1000C8007C0E066E150E076E000E086E000E096E89
:1000D800DDEC00F002C00EF003C00FF004C010F019
:1000E80005C011F0FF0E126E030E136E000E146E93
:1000F800000E156E8BEC00F07B0E0E24D66E1B0ED8
:100108000F20D76E000E246E030E236E1200000E11
:10011800166E000E176E000E186E000E196E125035
:10012800131014101510D8B49CEF00F09EEF00F0D7
:10013800D4EF00F0010E1A6EA8EF00F0D890123636
:100148001336143615361A2A15AEADEF00F0AFEF98
:1001580000F0A2EF00F0D890163617361836193688
:1001680012500E5C13500F58145010581550115857
:10017800D8A0C1EF00F0C3EF00F0CCEF00F01250B0
:100188000E5E13500F5A1450105A1550115A1680FB
:10019800D89015321432133212321A2EAFEF00F003
:1001A80016C00EF017C00FF018C010F019C011F0EB
:1001B8001200000E0A6E000E0B6E000E0C6E000E82
:1001C8000D6E02A0EAEF00F0ECEF00F0F4EF00F0A3
:1001D80006500A2607500B2208500C2209500D22FF
:1001E800D8900636073608360936D89005320432D4
:1001F800033202320250031004100510D8A407EF8E
:1002080001F009EF01F0E5EF00F00AC002F00BC0C1
:1002180003F00CC004F00DC005F012000600F2A4B3
:1002280018EF01F01AEF01F045EF01F02350241008
:10023800D8A421EF01F023EF01F027EF01F0000E21
:10024800246E020E236E030E23182410D8A42FEF59
:1002580001F031EF01F035EF01F0000E246E010ED0
:10026800236E8CA03AEF01F03EEF01F0016A012AFB
:100278003FEF01F0016A8C500118FE0B01188C6EDB
:10028800F294259211000F0E926E000E956EF29E5A
:100298009D9CF29CF28A0E0EC16E8E0EC06EC30E2D
:1002A800C216C280C282810ED56EF28EF28C000E0A
:1002B800D76E000ED66EF2948C90C282C2B267EFEF
:1002C80001F069EF01F062EF01F009EC00F061EF75
:1002D80001F007EF00F00C0EF66E030EF76E000E3D
:1002E800F86E0900F5CF23F00900F5CF24F000EEF1
:1002F8001BF0080EEE6AE806FDE125902592000144
:0603080047EF01F00100C7
:020000040020DA
:08000000FFFFFFFFFFFFFFFF00
:020000040030CA
:0E000000010E191EFF8080FF0FC00FE00F40A1
:00000001FF
